{
  "_format": "hh-sol-artifact-1",
  "contractName": "Ballot",
  "sourceName": "contracts/MyToken.sol",
  "abi": [
    {
      "inputs": [
        {
          "components": [
            {
              "internalType": "int256",
              "name": "id",
              "type": "int256"
            },
            {
              "internalType": "string",
              "name": "name",
              "type": "string"
            },
            {
              "internalType": "int256",
              "name": "voteCount",
              "type": "int256"
            }
          ],
          "internalType": "struct Ballot.Candidate[]",
          "name": "candidatesList",
          "type": "tuple[]"
        }
      ],
      "stateMutability": "nonpayable",
      "type": "constructor"
    },
    {
      "anonymous": false,
      "inputs": [
        {
          "indexed": true,
          "internalType": "address",
          "name": "from",
          "type": "address"
        },
        {
          "indexed": true,
          "internalType": "address",
          "name": "to",
          "type": "address"
        },
        {
          "indexed": false,
          "internalType": "uint256",
          "name": "value",
          "type": "uint256"
        }
      ],
      "name": "Transfer",
      "type": "event"
    },
    {
      "inputs": [
        {
          "internalType": "uint256",
          "name": "",
          "type": "uint256"
        }
      ],
      "name": "actions",
      "outputs": [
        {
          "internalType": "string",
          "name": "passportID",
          "type": "string"
        },
        {
          "internalType": "int256",
          "name": "candidateID",
          "type": "int256"
        }
      ],
      "stateMutability": "view",
      "type": "function"
    },
    {
      "inputs": [
        {
          "components": [
            {
              "internalType": "int256",
              "name": "id",
              "type": "int256"
            },
            {
              "internalType": "string",
              "name": "name",
              "type": "string"
            },
            {
              "internalType": "int256",
              "name": "voteCount",
              "type": "int256"
            }
          ],
          "internalType": "struct Ballot.Candidate[]",
          "name": "candidatesList",
          "type": "tuple[]"
        }
      ],
      "name": "addCandidates",
      "outputs": [],
      "stateMutability": "nonpayable",
      "type": "function"
    },
    {
      "inputs": [
        {
          "internalType": "address",
          "name": "",
          "type": "address"
        }
      ],
      "name": "balances",
      "outputs": [
        {
          "internalType": "uint256",
          "name": "",
          "type": "uint256"
        }
      ],
      "stateMutability": "view",
      "type": "function"
    },
    {
      "inputs": [
        {
          "internalType": "uint256",
          "name": "",
          "type": "uint256"
        }
      ],
      "name": "candidates",
      "outputs": [
        {
          "internalType": "int256",
          "name": "id",
          "type": "int256"
        },
        {
          "internalType": "string",
          "name": "name",
          "type": "string"
        },
        {
          "internalType": "int256",
          "name": "voteCount",
          "type": "int256"
        }
      ],
      "stateMutability": "view",
      "type": "function"
    },
    {
      "inputs": [],
      "name": "chairperson",
      "outputs": [
        {
          "internalType": "address",
          "name": "",
          "type": "address"
        }
      ],
      "stateMutability": "view",
      "type": "function"
    },
    {
      "inputs": [],
      "name": "endVote",
      "outputs": [],
      "stateMutability": "nonpayable",
      "type": "function"
    },
    {
      "inputs": [],
      "name": "getCandidatesWithVotes",
      "outputs": [
        {
          "components": [
            {
              "internalType": "int256",
              "name": "id",
              "type": "int256"
            },
            {
              "internalType": "string",
              "name": "name",
              "type": "string"
            },
            {
              "internalType": "int256",
              "name": "voteCount",
              "type": "int256"
            }
          ],
          "internalType": "struct Ballot.Candidate[]",
          "name": "",
          "type": "tuple[]"
        },
        {
          "components": [
            {
              "internalType": "string",
              "name": "passportID",
              "type": "string"
            },
            {
              "internalType": "int256",
              "name": "candidateID",
              "type": "int256"
            }
          ],
          "internalType": "struct Ballot.Action[]",
          "name": "",
          "type": "tuple[]"
        }
      ],
      "stateMutability": "view",
      "type": "function"
    },
    {
      "inputs": [
        {
          "internalType": "address",
          "name": "voter",
          "type": "address"
        }
      ],
      "name": "giveRightToVote",
      "outputs": [],
      "stateMutability": "nonpayable",
      "type": "function"
    },
    {
      "inputs": [
        {
          "internalType": "address",
          "name": "account",
          "type": "address"
        },
        {
          "internalType": "uint256",
          "name": "amount",
          "type": "uint256"
        }
      ],
      "name": "mint",
      "outputs": [],
      "stateMutability": "nonpayable",
      "type": "function"
    },
    {
      "inputs": [],
      "name": "startVote",
      "outputs": [],
      "stateMutability": "nonpayable",
      "type": "function"
    },
    {
      "inputs": [],
      "name": "state",
      "outputs": [
        {
          "internalType": "enum Ballot.State",
          "name": "",
          "type": "uint8"
        }
      ],
      "stateMutability": "view",
      "type": "function"
    },
    {
      "inputs": [],
      "name": "totalSupply",
      "outputs": [
        {
          "internalType": "uint256",
          "name": "",
          "type": "uint256"
        }
      ],
      "stateMutability": "view",
      "type": "function"
    },
    {
      "inputs": [
        {
          "internalType": "int256",
          "name": "candidate",
          "type": "int256"
        },
        {
          "internalType": "string",
          "name": "passportID",
          "type": "string"
        }
      ],
      "name": "vote",
      "outputs": [],
      "stateMutability": "nonpayable",
      "type": "function"
    },
    {
      "inputs": [
        {
          "internalType": "address",
          "name": "",
          "type": "address"
        }
      ],
      "name": "voters",
      "outputs": [
        {
          "internalType": "uint256",
          "name": "weight",
          "type": "uint256"
        },
        {
          "internalType": "bool",
          "name": "voted",
          "type": "bool"
        },
        {
          "internalType": "uint256",
          "name": "vote",
          "type": "uint256"
        }
      ],
      "stateMutability": "view",
      "type": "function"
    },
    {
      "inputs": [],
      "name": "winningCandidate",
      "outputs": [
        {
          "internalType": "string",
          "name": "winnerName_",
          "type": "string"
        }
      ],
      "stateMutability": "view",
      "type": "function"
    }
  ],
  "bytecode": "0x60806040523480156200001157600080fd5b50604051620027f5380380620027f5833981810160405281019062000037919062000549565b336000806101000a81548173ffffffffffffffffffffffffffffffffffffffff021916908373ffffffffffffffffffffffffffffffffffffffff16021790555060018060008060009054906101000a900473ffffffffffffffffffffffffffffffffffffffff1673ffffffffffffffffffffffffffffffffffffffff1673ffffffffffffffffffffffffffffffffffffffff168152602001908152602001600020600001819055506000600660006101000a81548160ff021916908360028111156200010857620001076200059a565b5b021790555060005b8151811015620001df57600260405180606001604052808484815181106200013d576200013c620005c9565b5b6020026020010151600001518152602001848481518110620001645762000163620005c9565b5b602002602001015160200151815260200160008152509080600181540180825580915050600190039060005260206000209060030201600090919091909150600082015181600001556020820151816001019081620001c4919062000843565b50604082015181600201555050808060010191505062000110565b50506200092a565b6000604051905090565b600080fd5b600080fd5b600080fd5b6000601f19601f8301169050919050565b7f4e487b7100000000000000000000000000000000000000000000000000000000600052604160045260246000fd5b6200024b8262000200565b810181811067ffffffffffffffff821117156200026d576200026c62000211565b5b80604052505050565b600062000282620001e7565b905062000290828262000240565b919050565b600067ffffffffffffffff821115620002b357620002b262000211565b5b602082029050602081019050919050565b600080fd5b600080fd5b600080fd5b6000819050919050565b620002e881620002d3565b8114620002f457600080fd5b50565b6000815190506200030881620002dd565b92915050565b600080fd5b600067ffffffffffffffff82111562000331576200033062000211565b5b6200033c8262000200565b9050602081019050919050565b60005b83811015620003695780820151818401526020810190506200034c565b60008484015250505050565b60006200038c620003868462000313565b62000276565b905082815260208101848484011115620003ab57620003aa6200030e565b5b620003b884828562000349565b509392505050565b600082601f830112620003d857620003d7620001fb565b5b8151620003ea84826020860162000375565b91505092915050565b6000606082840312156200040c576200040b620002c9565b5b62000418606062000276565b905060006200042a84828501620002f7565b600083015250602082015167ffffffffffffffff811115620004515762000450620002ce565b5b6200045f84828501620003c0565b60208301525060406200047584828501620002f7565b60408301525092915050565b600062000498620004928462000295565b62000276565b90508083825260208201905060208402830185811115620004be57620004bd620002c4565b5b835b818110156200050c57805167ffffffffffffffff811115620004e757620004e6620001fb565b5b808601620004f68982620003f3565b85526020850194505050602081019050620004c0565b5050509392505050565b600082601f8301126200052e576200052d620001fb565b5b81516200054084826020860162000481565b91505092915050565b600060208284031215620005625762000561620001f1565b5b600082015167ffffffffffffffff811115620005835762000582620001f6565b5b620005918482850162000516565b91505092915050565b7f4e487b7100000000000000000000000000000000000000000000000000000000600052602160045260246000fd5b7f4e487b7100000000000000000000000000000000000000000000000000000000600052603260045260246000fd5b600081519050919050565b7f4e487b7100000000000000000000000000000000000000000000000000000000600052602260045260246000fd5b600060028204905060018216806200064b57607f821691505b60208210810362000661576200066062000603565b5b50919050565b60008190508160005260206000209050919050565b60006020601f8301049050919050565b600082821b905092915050565b600060088302620006cb7fffffffffffffffffffffffffffffffffffffffffffffffffffffffffffffffff826200068c565b620006d786836200068c565b95508019841693508086168417925050509392505050565b6000819050919050565b6000819050919050565b6000620007246200071e6200071884620006ef565b620006f9565b620006ef565b9050919050565b6000819050919050565b620007408362000703565b620007586200074f826200072b565b84845462000699565b825550505050565b600090565b6200076f62000760565b6200077c81848462000735565b505050565b5b81811015620007a4576200079860008262000765565b60018101905062000782565b5050565b601f821115620007f357620007bd8162000667565b620007c8846200067c565b81016020851015620007d8578190505b620007f0620007e7856200067c565b83018262000781565b50505b505050565b600082821c905092915050565b60006200081860001984600802620007f8565b1980831691505092915050565b600062000833838362000805565b9150826002028217905092915050565b6200084e82620005f8565b67ffffffffffffffff8111156200086a576200086962000211565b5b62000876825462000632565b62000883828285620007a8565b600060209050601f831160018114620008bb5760008415620008a6578287015190505b620008b2858262000825565b86555062000922565b601f198416620008cb8662000667565b60005b82811015620008f557848901518255600182019150602085019450602081019050620008ce565b8683101562000915578489015162000911601f89168262000805565b8355505b6001600288020188555050505b505050505050565b611ebb806200093a6000396000f3fe608060405234801561001057600080fd5b50600436106100f55760003560e01c806383240f8311610097578063c19d93fb11610066578063c19d93fb14610266578063c4b9db0714610284578063d28178d7146102a0578063e110510b146102be576100f5565b806383240f83146101dd5780639e7b8d611461020e578063a3ec138d1461022a578063b92239461461025c576100f5565b80633477ee2e116100d35780633477ee2e1461016657806340c10f19146101985780634c0a6af0146101b45780634e43dcb2146101be576100f5565b806318160ddd146100fa57806327e235e3146101185780632e4176cf14610148575b600080fd5b6101026102da565b60405161010f9190610f24565b60405180910390f35b610132600480360381019061012d9190610fb1565b6102e0565b60405161013f9190610f24565b60405180910390f35b6101506102f8565b60405161015d9190610fed565b60405180910390f35b610180600480360381019061017b9190611034565b61031c565b60405161018f9392919061110a565b60405180910390f35b6101b260048036038101906101ad9190611148565b6103de565b005b6101bc6104fa565b005b6101c6610527565b6040516101d49291906113f2565b60405180910390f35b6101f760048036038101906101f29190611034565b610904565b604051610205929190611429565b60405180910390f35b61022860048036038101906102239190610fb1565b6109c0565b005b610244600480360381019061023f9190610fb1565b610b77565b60405161025393929190611474565b60405180910390f35b610264610bae565b005b61026e610bdb565b60405161027b9190611522565b60405180910390f35b61029e6004803603810190610299919061169e565b610bee565b005b6102a8610ce9565b6040516102b591906116fa565b60405180910390f35b6102d860048036038101906102d3919061188c565b610e14565b005b60045481565b60056020528060005260406000206000915090505481565b60008054906101000a900473ffffffffffffffffffffffffffffffffffffffff1681565b6002818154811061032c57600080fd5b906000526020600020906003020160009150905080600001549080600101805461035590611904565b80601f016020809104026020016040519081016040528092919081815260200182805461038190611904565b80156103ce5780601f106103a3576101008083540402835291602001916103ce565b820191906000526020600020905b8154815290600101906020018083116103b157829003601f168201915b5050505050908060020154905083565b60008111610421576040517f08c379a0000000000000000000000000000000000000000000000000000000008152600401610418906119a7565b60405180910390fd5b80600560008473ffffffffffffffffffffffffffffffffffffffff1673ffffffffffffffffffffffffffffffffffffffff168152602001908152602001600020600082825461047091906119f6565b92505081905550806004600082825461048991906119f6565b925050819055508173ffffffffffffffffffffffffffffffffffffffff16600073ffffffffffffffffffffffffffffffffffffffff167fddf252ad1be2c89b69c2b068fc378daa952ba7f163c4a11628f55a4df523b3ef836040516104ee9190610f24565b60405180910390a35050565b6001600660006101000a81548160ff021916908360028111156105205761051f6114ab565b5b0217905550565b606080600060028054905067ffffffffffffffff81111561054b5761054a611573565b5b60405190808252806020026020018201604052801561057e57816020015b60608152602001906001900390816105695790505b509050600060028054905067ffffffffffffffff8111156105a2576105a1611573565b5b6040519080825280602002602001820160405280156105d05781602001602082028036833780820191505090505b50905060005b60028054905081101561070157600281815481106105f7576105f6611a2a565b5b9060005260206000209060030201600101805461061390611904565b80601f016020809104026020016040519081016040528092919081815260200182805461063f90611904565b801561068c5780601f106106615761010080835404028352916020019161068c565b820191906000526020600020905b81548152906001019060200180831161066f57829003601f168201915b50505050508382815181106106a4576106a3611a2a565b5b6020026020010181905250600281815481106106c3576106c2611a2a565b5b9060005260206000209060030201600201548282815181106106e8576106e7611a2a565b5b60200260200101818152505080806001019150506105d6565b506002600381805480602002602001604051908101604052809291908181526020016000905b828210156107ff57838290600052602060002090600302016040518060600160405290816000820154815260200160018201805461076490611904565b80601f016020809104026020016040519081016040528092919081815260200182805461079090611904565b80156107dd5780601f106107b2576101008083540402835291602001916107dd565b820191906000526020600020905b8154815290600101906020018083116107c057829003601f168201915b5050505050815260200160028201548152505081526020019060010190610727565b50505050915080805480602002602001604051908101604052809291908181526020016000905b828210156108f4578382906000526020600020906002020160405180604001604052908160008201805461085990611904565b80601f016020809104026020016040519081016040528092919081815260200182805461088590611904565b80156108d25780601f106108a7576101008083540402835291602001916108d2565b820191906000526020600020905b8154815290600101906020018083116108b557829003601f168201915b5050505050815260200160018201548152505081526020019060010190610826565b5050505090509350935050509091565b6003818154811061091457600080fd5b906000526020600020906002020160009150905080600001805461093790611904565b80601f016020809104026020016040519081016040528092919081815260200182805461096390611904565b80156109b05780601f10610985576101008083540402835291602001916109b0565b820191906000526020600020905b81548152906001019060200180831161099357829003601f168201915b5050505050908060010154905082565b60008054906101000a900473ffffffffffffffffffffffffffffffffffffffff1673ffffffffffffffffffffffffffffffffffffffff163373ffffffffffffffffffffffffffffffffffffffff1614610a4e576040517f08c379a0000000000000000000000000000000000000000000000000000000008152600401610a4590611acb565b60405180910390fd5b600160008273ffffffffffffffffffffffffffffffffffffffff1673ffffffffffffffffffffffffffffffffffffffff16815260200190815260200160002060010160009054906101000a900460ff1615610ade576040517f08c379a0000000000000000000000000000000000000000000000000000000008152600401610ad590611b37565b60405180910390fd5b6000600160008373ffffffffffffffffffffffffffffffffffffffff1673ffffffffffffffffffffffffffffffffffffffff1681526020019081526020016000206000015414610b2d57600080fd5b60018060008373ffffffffffffffffffffffffffffffffffffffff1673ffffffffffffffffffffffffffffffffffffffff1681526020019081526020016000206000018190555050565b60016020528060005260406000206000915090508060000154908060010160009054906101000a900460ff16908060020154905083565b6002600660006101000a81548160ff02191690836002811115610bd457610bd36114ab565b5b0217905550565b600660009054906101000a900460ff1681565b600360405180604001604052808381526020018481525090806001815401808255809150506001900390600052602060002090600202016000909190919091506000820151816000019081610c439190611d03565b5060208201518160010155505060008290506002805490508110610c9c576040517f08c379a0000000000000000000000000000000000000000000000000000000008152600401610c9390611e21565b60405180910390fd5b600160028281548110610cb257610cb1611a2a565b5b90600052602060002090600302016002016000828254610cd29190611e41565b92505081905550610ce43360016103de565b505050565b60606000805b600280549050811015610e0f578160028281548110610d1157610d10611a2a565b5b9060005260206000209060030201600201541315610e025760028181548110610d3d57610d3c611a2a565b5b906000526020600020906003020160020154915060028181548110610d6557610d64611a2a565b5b90600052602060002090600302016001018054610d8190611904565b80601f0160208091040260200160405190810160405280929190818152602001828054610dad90611904565b8015610dfa5780601f10610dcf57610100808354040283529160200191610dfa565b820191906000526020600020905b815481529060010190602001808311610ddd57829003601f168201915b505050505092505b8080600101915050610cef565b505090565b6000600660006101000a81548160ff02191690836002811115610e3a57610e396114ab565b5b021790555060005b8151811015610f075760026040518060600160405280848481518110610e6b57610e6a611a2a565b5b6020026020010151600001518152602001848481518110610e8f57610e8e611a2a565b5b602002602001015160200151815260200160008152509080600181540180825580915050600190039060005260206000209060030201600090919091909150600082015181600001556020820151816001019081610eed9190611d03565b506040820151816002015550508080600101915050610e42565b5050565b6000819050919050565b610f1e81610f0b565b82525050565b6000602082019050610f396000830184610f15565b92915050565b6000604051905090565b600080fd5b600080fd5b600073ffffffffffffffffffffffffffffffffffffffff82169050919050565b6000610f7e82610f53565b9050919050565b610f8e81610f73565b8114610f9957600080fd5b50565b600081359050610fab81610f85565b92915050565b600060208284031215610fc757610fc6610f49565b5b6000610fd584828501610f9c565b91505092915050565b610fe781610f73565b82525050565b60006020820190506110026000830184610fde565b92915050565b61101181610f0b565b811461101c57600080fd5b50565b60008135905061102e81611008565b92915050565b60006020828403121561104a57611049610f49565b5b60006110588482850161101f565b91505092915050565b6000819050919050565b61107481611061565b82525050565b600081519050919050565b600082825260208201905092915050565b60005b838110156110b4578082015181840152602081019050611099565b60008484015250505050565b6000601f19601f8301169050919050565b60006110dc8261107a565b6110e68185611085565b93506110f6818560208601611096565b6110ff816110c0565b840191505092915050565b600060608201905061111f600083018661106b565b818103602083015261113181856110d1565b9050611140604083018461106b565b949350505050565b6000806040838503121561115f5761115e610f49565b5b600061116d85828601610f9c565b925050602061117e8582860161101f565b9150509250929050565b600081519050919050565b600082825260208201905092915050565b6000819050602082019050919050565b6111bd81611061565b82525050565b600082825260208201905092915050565b60006111df8261107a565b6111e981856111c3565b93506111f9818560208601611096565b611202816110c0565b840191505092915050565b600060608301600083015161122560008601826111b4565b506020830151848203602086015261123d82826111d4565b915050604083015161125260408601826111b4565b508091505092915050565b6000611269838361120d565b905092915050565b6000602082019050919050565b600061128982611188565b6112938185611193565b9350836020820285016112a5856111a4565b8060005b858110156112e157848403895281516112c2858261125d565b94506112cd83611271565b925060208a019950506001810190506112a9565b50829750879550505050505092915050565b600081519050919050565b600082825260208201905092915050565b6000819050602082019050919050565b6000604083016000830151848203600086015261133c82826111d4565b915050602083015161135160208601826111b4565b508091505092915050565b6000611368838361131f565b905092915050565b6000602082019050919050565b6000611388826112f3565b61139281856112fe565b9350836020820285016113a48561130f565b8060005b858110156113e057848403895281516113c1858261135c565b94506113cc83611370565b925060208a019950506001810190506113a8565b50829750879550505050505092915050565b6000604082019050818103600083015261140c818561127e565b90508181036020830152611420818461137d565b90509392505050565b6000604082019050818103600083015261144381856110d1565b9050611452602083018461106b565b9392505050565b60008115159050919050565b61146e81611459565b82525050565b60006060820190506114896000830186610f15565b6114966020830185611465565b6114a36040830184610f15565b949350505050565b7f4e487b7100000000000000000000000000000000000000000000000000000000600052602160045260246000fd5b600381106114eb576114ea6114ab565b5b50565b60008190506114fc826114da565b919050565b600061150c826114ee565b9050919050565b61151c81611501565b82525050565b60006020820190506115376000830184611513565b92915050565b61154681611061565b811461155157600080fd5b50565b6000813590506115638161153d565b92915050565b600080fd5b600080fd5b7f4e487b7100000000000000000000000000000000000000000000000000000000600052604160045260246000fd5b6115ab826110c0565b810181811067ffffffffffffffff821117156115ca576115c9611573565b5b80604052505050565b60006115dd610f3f565b90506115e982826115a2565b919050565b600067ffffffffffffffff82111561160957611608611573565b5b611612826110c0565b9050602081019050919050565b82818337600083830152505050565b600061164161163c846115ee565b6115d3565b90508281526020810184848401111561165d5761165c61156e565b5b61166884828561161f565b509392505050565b600082601f83011261168557611684611569565b5b813561169584826020860161162e565b91505092915050565b600080604083850312156116b5576116b4610f49565b5b60006116c385828601611554565b925050602083013567ffffffffffffffff8111156116e4576116e3610f4e565b5b6116f085828601611670565b9150509250929050565b6000602082019050818103600083015261171481846110d1565b905092915050565b600067ffffffffffffffff82111561173757611736611573565b5b602082029050602081019050919050565b600080fd5b600080fd5b600080fd5b60006060828403121561176d5761176c61174d565b5b61177760606115d3565b9050600061178784828501611554565b600083015250602082013567ffffffffffffffff8111156117ab576117aa611752565b5b6117b784828501611670565b60208301525060406117cb84828501611554565b60408301525092915050565b60006117ea6117e58461171c565b6115d3565b9050808382526020820190506020840283018581111561180d5761180c611748565b5b835b8181101561185457803567ffffffffffffffff81111561183257611831611569565b5b80860161183f8982611757565b8552602085019450505060208101905061180f565b5050509392505050565b600082601f83011261187357611872611569565b5b81356118838482602086016117d7565b91505092915050565b6000602082840312156118a2576118a1610f49565b5b600082013567ffffffffffffffff8111156118c0576118bf610f4e565b5b6118cc8482850161185e565b91505092915050565b7f4e487b7100000000000000000000000000000000000000000000000000000000600052602260045260246000fd5b6000600282049050600182168061191c57607f821691505b60208210810361192f5761192e6118d5565b5b50919050565b7f416d6f756e742073686f756c642062652067726561746572207468616e207a6560008201527f726f000000000000000000000000000000000000000000000000000000000000602082015250565b6000611991602283611085565b915061199c82611935565b604082019050919050565b600060208201905081810360008301526119c081611984565b9050919050565b7f4e487b7100000000000000000000000000000000000000000000000000000000600052601160045260246000fd5b6000611a0182610f0b565b9150611a0c83610f0b565b9250828201905080821115611a2457611a236119c7565b5b92915050565b7f4e487b7100000000000000000000000000000000000000000000000000000000600052603260045260246000fd5b7f4f6e6c79206368616972706572736f6e2063616e20676976652072696768742060008201527f746f20766f74652e000000000000000000000000000000000000000000000000602082015250565b6000611ab5602883611085565b9150611ac082611a59565b604082019050919050565b60006020820190508181036000830152611ae481611aa8565b9050919050565b7f54686520766f74657220616c726561647920766f7465642e0000000000000000600082015250565b6000611b21601883611085565b9150611b2c82611aeb565b602082019050919050565b60006020820190508181036000830152611b5081611b14565b9050919050565b60008190508160005260206000209050919050565b60006020601f8301049050919050565b600082821b905092915050565b600060088302611bb97fffffffffffffffffffffffffffffffffffffffffffffffffffffffffffffffff82611b7c565b611bc38683611b7c565b95508019841693508086168417925050509392505050565b6000819050919050565b6000611c00611bfb611bf684610f0b565b611bdb565b610f0b565b9050919050565b6000819050919050565b611c1a83611be5565b611c2e611c2682611c07565b848454611b89565b825550505050565b600090565b611c43611c36565b611c4e818484611c11565b505050565b5b81811015611c7257611c67600082611c3b565b600181019050611c54565b5050565b601f821115611cb757611c8881611b57565b611c9184611b6c565b81016020851015611ca0578190505b611cb4611cac85611b6c565b830182611c53565b50505b505050565b600082821c905092915050565b6000611cda60001984600802611cbc565b1980831691505092915050565b6000611cf38383611cc9565b9150826002028217905092915050565b611d0c8261107a565b67ffffffffffffffff811115611d2557611d24611573565b5b611d2f8254611904565b611d3a828285611c76565b600060209050601f831160018114611d6d5760008415611d5b578287015190505b611d658582611ce7565b865550611dcd565b601f198416611d7b86611b57565b60005b82811015611da357848901518255600182019150602085019450602081019050611d7e565b86831015611dc05784890151611dbc601f891682611cc9565b8355505b6001600288020188555050505b505050505050565b7f496e76616c69642063616e64696461746520696e646578000000000000000000600082015250565b6000611e0b601783611085565b9150611e1682611dd5565b602082019050919050565b60006020820190508181036000830152611e3a81611dfe565b9050919050565b6000611e4c82611061565b9150611e5783611061565b925082820190508281121560008312168382126000841215161715611e7f57611e7e6119c7565b5b9291505056fea264697066735822122096ebfc4384532dba6cacbaa57c5317f3036f89d32c8dad4781433e0d46e36e3a64736f6c63430008180033",
  "linkReferences": {},
  "deployedLinkReferences": {}
}